:020000040800F2
:10000000402A0120B1010008331C0008CD1A000865
:10001000311C00088D030008BF220008000000000A
:100020000000000000000000000000003D1F00086C
:100030004D04000800000000351C00083F1F0008A8
:10004000CB010008CB010008CB010008CB01000860
:10005000CB010008CB010008CB010008CB01000850
:10006000CB010008CB010008CB010008CB01000840
:10007000CB010008CB010008CB010008CB01000830
:10008000CB010008CB010008CB01000800000000F4
:10009000000000000000000000000000CB0100088C
:1000A000CB010008CB010008CB010008CB01000800
:1000B000CB010008CB010008CB010008CB010008F0
:1000C000CB010008CB010008CB010008391C000857
:1000D000CB010008CB010008CB01000800000000A4
:1000E000CB010008CB010008CB0100080000000094
:1000F000000000000000000000000000CB0100082C
:1001000000000000CB010008CB010008CB01000873
:1001100000000000000000000000000000000000DF
:1001200091030008CB0100089D030008CB010008E3
:10013000CB010008000000000000000000000000EB
:10014000000000000000000000000000CB010008DB
:10015000CB010008CB010008CB010008CB0100084F
:10016000CB010008CB0100080000000000000000E7
:10017000000000000000000000000000000000007F
:1001800000000000CB01000800000000000000009B
:10019000CB010008CB010008DFF810D000F0E4F834
:1001A0000048004761460008AFF30080402A012064
:1001B0000648804706480047FEE7FEE7FEE7FEE701
:1001C000FEE7FEE7FEE7FEE7FEE7FEE7D51F0008D5
:1001D000990100082DE9F05F0546002092469B46F4
:1001E00088460646814640241BE02846414647464D
:1001F000224600F0A9F853465A46C01A914110D33E
:1002000011461846224600F090F82D1A67EB0108B7
:100210004F4622460120002100F087F817EB000925
:100220004E41201EA4F10104DFDC484631462A4637
:100230004346BDE8F09F00000649074A086850435E
:1002400043F23902104408604008704701490860D1
:10025000704700009C0000206D4EC64110B5431A47
:10026000934209D28318881803E010F8011D03F89F
:10027000011D521EF9D210BD40EA01039B0703D0B5
:1002800009E008C9121F08C0042AFAD203E011F8D5
:10029000013B00F8013B521EF9D210BDD2B201E081
:1002A00000F8012B491EFBD270470022F6E710B57B
:1002B00013460A4604461946FFF7F0FF204610BDD4
:1002C000CAB2401E10F8011F8A4202D00029F9D19B
:1002D00000207047421C10F8011B0029FBD1801A36
:1002E000704730B504460020034600E05B1C934293
:1002F00003D2E05CCD5C401BF8D030BD034611F862
:10030000012B00F8012B002AF9D11846704710B5CF
:100310004843044604F058FB002805D00021002C77
:1003200002D0641E0155FAE710BD202A04DB203AF2
:1003300000FA02F1002070479140C2F1200320FA38
:1003400003F3194390407047202A04DB203A21FA36
:1003500002F00021704721FA02F3D040C2F12002DE
:100360009140084319467047064C074D06E0E06887
:1003700040F0010394E8070098471034AC42F6D3EC
:10038000FFF70EFFFC4F01081C500108FEE70000BC
:10039000014800F073B800008C0C0020014800F008
:1003A0006DB800002C0C002001681823CAB2103A66
:1003B000B2FBF3F2054B6FF30901032A9B5CC365A3
:1003C00000D9091D816508467047000020240108F6
:1003D00010B5014600208B698A6A4FF0C07453B192
:1003E000B3F5005F15D072B1012A0CD0022A0AD0F1
:1003F000032A09D104E01AB1012A06D0022A03D146
:10040000C96AC90100D5012010BDC96AA142FAD04C
:1004100010BD002AF7D0012AF2D0022AF3D0032A15
:10042000F3D010BD30B50468256825F4802525601B
:10043000046863608368402B036803D09960006898
:10044000C26030BD9A600068C16030BD704772B64E
:10045000FEE790F83510022903D080214165012084
:100460007047052180F835100068016821F001010E
:1004700001600020704790F8350070472DE9F8437F
:1004800004464FF00009CDF8009063484FF4165130
:10049000A56D0068B0FBF1F72E6894F85C10082099
:1004A00000FA01F131420FD021680A6852070BD5DA
:1004B0000A6822F004020A6094F85C108840A86080
:1004C000606D40F00100606594F85C104FF0010829
:1004D00008FA01F0304208D021684969090604D5BC
:1004E000A860606D40F00200606594F85C10042024
:1004F0008840304208D021680968890704D5A8607F
:10050000606D40F00400606594F85C101020884035
:10051000304218D021680968090714D5A8602068FE
:100520000168490304D50068000308D5A16C07E001
:100530000168C90503D4016821F008010160216C3C
:1005400009B12046884794F85C102020884030424A
:1005500031D021680968C9062DD5A86094F8350006
:1005600005282068016806D0490347D500680003C4
:100570001DD4616C1CE021F0160101602068416906
:1005800021F080014161206C08B9A06C20B1206885
:10059000016821F00801016094F85C103F20884058
:1005A000A86084F8358084F83490216D1FE0E16BF9
:1005B00009B120468847606D00282BD0606DC007C8
:1005C00014D0052084F835002068016821F001016D
:1005D00001600098401C0090B84203D82068006871
:1005E000C007F6D184F8358084F83490E16C002996
:1005F00010D001B02046BDE8F04308470168C905A6
:10060000D5D4016821F01001016084F8358084F8A8
:100610003490CCE7BDE8F8832C0000202DE9F041B0
:10062000044600F0A5F906465CB1022084F83500C6
:10063000002584F834502068016821F00101016030
:100640000DE00120BDE8F08100F092F9801B052843
:1006500005D920206065032084F83500F2E7206882
:100660000068C007F0D12268116820480140D4E931
:1006700001031843D4E9033633431843636918432D
:10068000A3691843E3691843236A18430843616A5E
:10069000042903D1D4E90B131943084310602068DF
:1006A0004069666A20F0070130460E43012704289E
:1006B0000CD1A06A0643E06A40B12046FFF788FEED
:1006C00020B14020606584F83570BAE72068466143
:1006D0002046FFF769FE94F85C203F21914081603D
:1006E000656584F835700020ACE700003F8010F0AD
:1006F0002DE9F0410446866D90F83400002501286C
:100700000DD0012084F8340094F835700020012FBA
:1007100007D084F8340002252846BDE8F081022085
:10072000FBE7022784F8357060652046FFF77AFE04
:1007300094F85C103F208840B0602068016841F068
:1007400016010160206C20B12068016841F00801A9
:1007500001602068016841F001010160DCE70000F0
:1007600070B5044600F004F90546601C02D0044848
:100770000078044400F0FCF8401BA042FAD370BD9E
:10078000200000202DE9F84FDFF8B8A10022012455
:1007900003254FF00F090AF1040BAAF1040E00BF64
:1007A0000B6804FA02F63340B34273D10F7907F0B5
:1007B0000307012F01D0022F16D187684FEA4208A4
:1007C00005FA08FC27EA0C07D1F80CC00CFA08FC63
:1007D0004CEA070CC0F808C04768B7430E79C6F367
:1007E000001696403E4346600E79F643B6070DD09C
:1007F000C768560005FA06FC27EA0C07D1F808C0BE
:100800000CFA06FC4CEA070CC0F80CC00E7906F096
:100810000306022E10D1D60800EB8608D8F8206017
:1008200057074FEAD76C09FA0CF7BE430F6907FA6E
:100830000CF73743C8F8207006684FEA420C05FAF7
:100840000CF7BE430F7907F0030707FA0CF737439D
:1008500007604E6816F4403F6DD03B4E376847F452
:1008600080473760366822F0030706F4804600961A
:10087000364E07EB060CDCF8086897073F0F09FABD
:1008800007F826EA0806DFF8C880404503D14FF094
:1008900000081EE04FE0DFF8BC80404502D14FF079
:1008A000010816E0DFF8B080404502D14FF00208A1
:1008B0000FE0DFF8A880404502D14FF0030808E0C0
:1008C000DFF89C80404502D14FF0040801E04FF072
:1008D000070808FA07F848EA0608CCF80888DAF8A2
:1008E00000605746D1F804C09E435FEACC2C00D587
:1008F0001E433E60DBF800605F46D1F804C09E43B3
:100900005FEA8C2C00D51E433E60DEF8006077461F
:10091000D1F804C09E435FEA8C3C00D51E433E6084
:10092000084F083F3E68D1F804C09E435FEACC3CC4
:1009300000D51E433E60521C102AFFF431AFBDE8C3
:10094000F88F0000083C014044380240003001406C
:10095000000002400004024000080240000C024077
:10096000001002400AB1816170470904FBE70000F2
:10097000014880687047000020000020024881681C
:100980000278114481607047200000200B4810B5A8
:10099000016841F400710160016841F48061016007
:1009A000016841F480710160032000F071F80020BB
:1009B00000F006F800F024F8002010BD003C0240D2
:1009C00070B50D4D04464FF47A712878B1FBF0F004
:1009D0000A490968B1FBF0F000F0C0FE48B9102CDC
:1009E00007D200222146501E00F032F800206C6031
:1009F00070BD012070BD0000200000202C000020F0
:100A00000B4882B0016841F480410160006800F445
:100A1000804000900648001F016841F0805101604D
:100A2000006800F080500090072002B000F030B85D
:100A300044380240002809DB00F01F0201219140E8
:100A40004009800000F1E020C0F80011704700006C
:100A5000F0B40E4B1B680C46C3F30223C3F1070529
:100A6000042D00D90425191D072901D2002300E017
:100A7000DB1E012606FA05F1491E214099409E40E1
:100A8000761E16403143F0BC01F0F8BC0CED00E0DE
:100A9000064900F0070208684FF6FF03184040EAD5
:100AA0000220034A10430860704700000CED00E08C
:100AB0000000FA052DE9F0470E46050065D0DFF885
:100AC0001481D8F80000F7B200F00700B04207D256
:100AD00088F80070D8F8000000F00700B04254D148
:100AE00028683D4C810712D5400703D5206840F4A3
:100AF000E05020602878000703D5206840F460406B
:100B000020602068A96820F0F00008432060287861
:100B1000C0072DD0304968680839012812D0022852
:100B200013D0032811D00968890700292DDA21681C
:100B300021F0030101432160FFF71AFF814641F2D2
:100B4000883A0EE009688903EFE709688901ECE754
:100B5000FFF70EFFA0EB0901514502D90320BDE8C4
:100B6000F0872068696800F00C00B0EB810FEFD1CE
:100B7000D8F80010404601F00701B14207D90770CC
:100B8000006800F00700B04201D00120E7E72878B4
:100B9000400705D52068E96820F4E050084320604C
:100BA0002878000706D52068296920F4604040EACB
:100BB000C100206000F038F82168084AC1F3031131
:100BC000515CC8400649086006480068FFF7F8FE17
:100BD0000020C4E7003C02400838024028240108F5
:100BE0002C00002024000020044805490068096802
:100BF000044AC1F38221515CC84070472C00002098
:100C0000083802403824010804480549006809688A
:100C1000044AC1F34231515CC84070472C000020A7
:100C20000838024038240108154810B5006810F053
:100C30000C02144813D04110042A0FD0082A0ED1F8
:100C40000F4C241F2268236802F03F025B0207D585
:100C50002068C0F38810A0FB010106E0084610BD23
:100C60002168C1F38811A1FB00010023FFF7B2FA4C
:100C70002168C1F30141491C4900B0FBF1F010BDEE
:100C8000083802400024F4002DE9F84F04006ED02B
:100C90002078DFF84C93C007A9F104054AD009F188
:100CA00004000168C1F38101012908D00068C0F384
:100CB000810002280AD1D9F80000400206D5286830
:100CC000800337D560680028E1D033E06068B0F574
:100CD000803F10D0B0F5A02F286810D020F48030CD
:100CE0002860286820F4802028606068A8B1FFF799
:100CF0003FFE06460DE0286840F48030F4E740F4FB
:100D000080202860F7E700BFFFF732FE801B6428D1
:100D100073D828688003F7D50CE0FFF729FE064654
:100D200005E000BFFFF724FE801B6428F0D8286888
:100D30008003F7D42078DFF8AC8280074FF0000AF8
:100D40003ED5A748001D016811F00C0F08D00068BF
:100D5000C0F3810002280BD1D9F80000400207D46B
:100D60002868800716D5E068012800D112E033E139
:100D7000E068B8B10120C8F80000FFF7F9FD0646A9
:100D800005E000BFFFF7F4FD801B0228C0D82868EB
:100D90008007F7D52868216920F0F80040EAC100F3
:100DA00028600DE0C8F800A0FFF7E2FD064604E069
:100DB000FFF7DEFD801B02281FD828688007F7D4C4
:100DC0002078000722D5864F87486169703771B156
:100DD00001210160FFF7CCFD064604E0FFF7C8FDE6
:100DE000801B022809D838688007F7D50EE0C0F8C4
:100DF00000A0FFF7BDFD064605E082E0FFF7B8FD65
:100E0000801B02287DD838688007F7D420784007F7
:100E100068D5DFF8CCB100270BF13C0BDBF8000004
:100E2000C0000BD4DBF8001041F08051CBF800106B
:100E3000DBF80000012700F0805000906B4E306816
:100E4000C00510D4306840F480703060FFF790FD2A
:100E5000009005E0FFF78CFD0099401A022850D859
:100E60003068C005F6D55E4EA0686C3601280FD0FC
:100E70000528306810D020F001003060306820F084
:100E800004003060A068B8B1FFF772FD00900FE079
:100E9000306840F00100F4E740F004003060F7E70C
:100EA000FFF766FD0099411A41F28830814266D809
:100EB00030688007F4D50EE0FFF75AFD009007E098
:100EC000FFF756FD0099411A41F28830814256D809
:100ED00030688007F4D42FB1DBF8001021F0805186
:100EE000CBF80010A069C8B33D49091D0968C1F3DA
:100EF000810102294AD00228504607D0C8F8600074
:100F000000E03CE0FFF734FD04463BE04746C8F80C
:100F10006000FFF72DFD064605E000BFFFF728FD46
:100F2000801B02282BD828688001F7D4D4E9070158
:100F30000843A16A2E4A490802EB0141626A41EA6C
:100F40008211084394F82C1040EA0161C9F800109E
:100F500001203866FFF70CFD044606E03EE000BFC6
:100F6000FFF706FD001B022809D828688001F7D585
:100F700034E000BFFFF7FCFC001B022802D903206D
:100F8000BDE8F88F28688001F4D427E00128F7D065
:100F9000D9F80000E26900F4800191421CD1226A74
:100FA00000F03F01914217D147F6C071626A0140DB
:100FB000B1EB821F10D1A26A4FF0FF3300F4403131
:100FC00003EB5202B1EB024F06D194F82C1000F063
:100FD0007060B0EB016F01D00120D1E70020CFE7B6
:100FE0000438024000004742800E47420070004033
:100FF0000000FFFF704790F85100704738B5016856
:1010000004464A688868C043430606D5C30704D12E
:10101000D3435B0601D4216C05E0830708D4D34396
:101020001B0605D4616C01B02046BDE8304008477E
:10103000830603D5430601D5C30551D4D3439B068C
:101040004ED443060AD494F85130032B49D0636D33
:1010500043F004036365CB688B680093830609D46F
:10106000636D43F0010363658B6800930B6823F0A5
:1010700040030B60C00506D4606D40F00800606559
:10108000206880680090606D002829D02068416841
:1010900021F0E0014160012084F85100900701D463
:1010A000D00722D02068416821F003014160114D32
:1010B000E06C40B10565E06CFFF7CBF918B1606DED
:1010C00040F040006065A06C002809D00565A06C68
:1010D000FFF7BFF9002803D0606D40F04000606565
:1010E00038BDC8688868009038BD2046FFF782FF89
:1010F00038BD0000451C000870B5040009D0606AC6
:10110000002540B125616561A56294F8510040B1A8
:101110000CE0012070BD6068B0F5827FF4D0E5611D
:10112000F2E784F85050204600F044F8022084F89A
:1011300051002068016821F040010160A0882189E8
:1011400000F4827001F404410843A18901F40061B4
:101150000843217C01F002010843217D01F00101D7
:101160000843218B01F400710843217F01F038010D
:10117000084394F8201001F080010843218D01F408
:101180000051084321680860A069042101EA104069
:1011900094F8241001F01001084321684860206889
:1011A000C16921F40061C1616565012084F85100C5
:1011B000002070BD2DE9F04186B006461421684636
:1011C000FFF773F83049306888425AD12F4800241D
:1011D000016841F480510160006800F4805005907E
:1011E0002A481438016841F001010160006869462D
:1011F00000F001000590E02000900220CDE90104FC
:1012000003200390052004902148FFF7BBFA224DEC
:10121000204805F1080128604FF080606860402098
:10122000070181E891006C614FF40038AC61C5E9B9
:10123000074828466C62FFF7F1F908B1FFF707F994
:10124000B564AE631348154D303828604FF0C06068
:10125000C5E90104C5E903476C61AC61C5E907480C
:1012600028466C62FFF7DAF908B1FFF7F0F8F56489
:10127000002211462320AE63FFF7EAFB2320FFF78D
:10128000D9FB06B0BDE8F08100300140443802408F
:1012900000000240406402402C0C00208C0C002016
:1012A00070B5044690F85100012829D1A0680423A4
:1012B00018B96568B5F5827F17D0F9B1F2B194F825
:1012C0005050012D1CD0012584F8505084F8513025
:1012D00000256565A163A287E28725646564A5860C
:1012E000E586B0F5004F0DD016E084F85130204669
:1012F000BDE8704013460A4600F03EB9012070BDBB
:10130000022070BD2068016821F040010160206862
:10131000016821F480410160E16C17480864E16CC8
:101320001648C863E16C1648C864E06C0565E38F35
:101330002168A26B0C31E06CFFF7DAF930B1606D17
:1013400040F01000606584F85050D7E720680168CD
:10135000490603D4016841F04001016084F850500F
:101360002068416841F0200141602068416841F0F7
:1013700001014160002070BD771C0008951C000829
:10138000551C0008704770472DE9FF4F81B01D467E
:10139000934604464FF001090E9EFFF7E9FA07460F
:1013A00094F851006168012806D0B1F5827F3CD1E4
:1013B000A168C9BB042838D10298002871D0BBF1BC
:1013C000000FFBD0002DF9D094F8500001282CD04C
:1013D0004FF0010A84F850A094F85100042802D07C
:1013E000052084F851004FF00008C4F85480C4F878
:1013F00038B0E587A58702992163E586A586C4F8FC
:101400004080C4F8448020680168490603D401681C
:1014100041F040010160E068B0F5006F606808D0FD
:10142000F0B3012D49D081E0FFE7022005B0BDE80F
:10143000F08F08B1012D39D1206B21680088C86078
:10144000206B801C2063E08E401EE0862EE020682A
:10145000816889070FD5E18E69B1B9F1010F0AD111
:10146000216B0988C160206B801C2063E08E401EC8
:10147000E0864FF0000920688168C9070CD0E18F31
:1014800051B1C068A16B0880A06B801CA063E08F85
:10149000401EE0874FF00109FFF76AFAC01B01E028
:1014A0000BE067E0B04201D3701C50D1E08E002801
:1014B000CDD1E08F0028CAD13EE0206B21680078B2
:1014C0000873206B401C2063E08E401EE0862DE0F8
:1014D0002068816889070FD5E18E69B1B9F1010FE4
:1014E0000AD1216B09780173206B401C2063E08EC8
:1014F000401EE0864FF0000920688168C9070CD0C3
:10150000E18F51B1C068A16B0870A06B401CA06353
:10151000E08F401EE0874FF00109FFF729FAC01B5A
:10152000B04202D3701C01D011E086B1E08E0028D9
:10153000CED1E08F0028CBD13A463146204600F08C
:101540006BFC50B12020606584F8508012E084F874
:1015500051A084F85080032068E7A06818B920687B
:10156000C1688068009084F851A084F85080606D54
:101570000028F1D0012059E770B5044690F85100D9
:101580006568012806D0B5F5827F3AD1A568A5BB6C
:10159000042836D191B38AB383B394F8500001285C
:1015A0002FD0012084F8500094F85100042802D074
:1015B000052084F85100002565652163A386E38634
:1015C000A263A387E3872564656494F85100042827
:1015D00019D0E16C274808642748E16CC863E16CC6
:1015E0002648C864E06C0565E38F2168A26B0C3166
:1015F000E06CFFF77DF800BB0AE002E0FFE70120A6
:1016000070BD022070BDE16C1D4808641D48E4E710
:101610002068416841F001014160A06C0564A06C44
:10162000C563A06CC564A06C0565E38E2268216B60
:101630000C32A06CFFF75CF830B1606D40F0100028
:10164000606584F85050DAE720680168490603D4E1
:10165000016841F04001016084F850502068416801
:1016600041F0200141602068416841F00201416081
:10167000002070BD8B1C0008631D0008551C00086D
:10168000771C0008951C000870B5044690F85100BE
:1016900001281CD1C9B1C2B194F85000012816D05C
:1016A000012084F85000032084F85100002565656E
:1016B0002163A286E286A56365642564A587E58724
:1016C000A068B0F5004F04D00DE0012070BD0220ED
:1016D00070BD2068016821F0400101602068016848
:1016E00041F480410160A16C17480864A16C17485F
:1016F000C863A16C1648C864A06C0565E38E2268B7
:10170000216B0C32A06CFEF7F3FF30B1606D40F03E
:101710001000606584F85050D7E7206801684906DA
:1017200003D4016841F04001016084F85050206802
:10173000416841F0200141602068416841F00201A8
:101740004160002070BD0000811C0008FF1C0008E3
:10175000551C0008704770477047704710B5401E11
:10176000B0F1807F01D3012010BD4FF0E024606113
:101770000F21601700F082FE0020A0610720206189
:10178000002010BD70B590F83C20012A2CD0012417
:1017900080F83C40022280F83D2003685A689D682A
:1017A00022F070060A6832435A60104B02689A426F
:1017B0000ED0B2F1804F0BD00D4B9A4208D00D4B9A
:1017C0009A4205D00C4B9A4202D00C4B9A4204D15B
:1017D000496825F080031943916080F83D4000215D
:1017E00080F83C10084670BD022070BD000001402A
:1017F0000004004000080040000C00400040014090
:1018000010B5040003D094F83D0010B107E00120AA
:1018100010BD002084F83C00204600F01FF8022094
:1018200084F83D00211D206800F0DCFB012084F8D5
:10183000460084F83E0084F83F0084F8400084F8B5
:10184000410084F8420084F8430084F8440084F89E
:10185000450084F83D00002010BD000008B5006878
:101860000649884208D10648016841F0010101603B
:10187000006800F00100009008BD00000000014079
:101880004438024070B5044690F83C000025012819
:1018900017D0012684F83C60022084F83D002068BF
:1018A000826822F0770222F47F4282600868502822
:1018B00038D00DDC20284FD005DC90B3102811D192
:1018C0004AE0022070BD302846D040280AD13BE0D3
:1018D00060282FD070280DD0B0F5805F03D0B0F510
:1018E000005F12D0012584F83D60002084F83C00A0
:1018F000284670BDCB68D1E90121206800F0C4FB07
:101900002068816841F0770109E0CB68D1E90121C5
:10191000206800F0B9FB2068816841F48041816053
:10192000E1E719E0CA684968206800F0BFFB502170
:10193000206806E0CA684968206800F0C8FB60219A
:10194000206800F0ABFBCEE7CA684968206800F069
:10195000ADFB40212068F4E7226801461046F0E71D
:1019600070B5040004D094F84100002510B106E0E1
:10197000012070BD84F84050204600F023F8242058
:1019800084F841002068C16821F40051C1602046FC
:1019900000F0D6FB2068016921F4904101612068C4
:1019A000416921F02A0141612068C16841F4005178
:1019B000C1606564202084F8410084F842006563BA
:1019C000002070BD10B586B0044614216846FEF7AD
:1019D0006CFC13492068884220D11248002102681B
:1019E00042F400320260006800F4003005900D48B7
:1019F0001038026842F001020260006800F0010045
:101A000005900C2000900220CDE9010103200390F5
:101A10000720049069460448FEF7B4FE06B010BDE6
:101A20000044004040380240000002402DE9F843E5
:101A3000044690F84100984616460D46202802D0EC
:101A40000220BDE8F88385B17EB1002060642120CA
:101A500084F84100FEF78CFFA6848146E684A068E6
:101A60002027B0F5805F02D003E00120E9E720697C
:101A700010B12E4600250EE000260CE08021204605
:101A800000F0E4FBA8B9C6B116F8010B2168486064
:101A9000E08C401EE084E08C4B464FF00002CDF815
:101AA00000800028EAD14FF04001204600F0CEFB34
:101AB00040B184F841700320C3E735F8020BC0F34E
:101AC0000800E3E784F841700020BAE7FEE7000071
:101AD000F0B587B014216846FEF7E7FB27480024DD
:101AE000016841F004010160016801F00401059101
:101AF000016841F080010160016801F080010591F9
:101B0000016841F001010160016801F001010591E6
:101B1000016841F0020101600068194E00F0020006
:101B20000590002280213046FEF71CFF154F002251
:101B300040213846FEF716FF4FF4005000904FF456
:101B40000410CDE9010469463046FEF71BFE8020F3
:101B50000125CDE900050320CDE902406946304664
:101B6000FEF710FE40200090CDE90154694638464A
:101B70000394FEF707FE07B0F0BD000030380240C6
:101B800000080240000402400E4810B50C490160F4
:101B90004FF48271416000218160C1604FF4007296
:101BA0000161C0E90512C1610162416281620A21DD
:101BB000C162FFF7A1FA002801D072B6FEE710BD9E
:101BC00000300140AC08002010B586B00024174852
:101BD00000940194029403940494134905940160C1
:101BE0002021C0E9011440F2E731C0E90314446147
:101BF0008461FFF705FE08B172B6FEE74FF480502E
:101C0000009069460948FFF73DFE08B172B6FEE74D
:101C1000049404A905480594FFF7B4FD002801D0F9
:101C200072B6FEE706B010BD0000014004090020B6
:101C3000FEE7FEE7704700000148FFF7DFB900004C
:101C4000AC08002010B5806B0021C187C186FFF76A
:101C5000D1F910BD10B5806B01684A6822F003020B
:101C60004A60416D41F010014165012180F8511039
:101C7000FFF7C0F910BD10B5806BFFF784FB10BDF6
:101C800010B5806BFFF767FD10BD10B5806BFFF7D7
:101C900064FD10BD70B50546846BFEF769FE024613
:101CA00028680068C00526D42068416821F020011A
:101CB0004160A06818B96068B0F5827F16D02068CE
:101CC000416821F0010141606421204600F076F86E
:101CD00008B1202060650020E087012084F85100D1
:101CE000606D40B12046FFF785F970BD20684168FE
:101CF00021F00301E7E72046FFF744FB70BD38B54C
:101D00000546846BFEF734FE024628680068C0056D
:101D100023D42068416821F0200141602068416897
:101D200021F0020141606421204600F075F818B1ED
:101D3000606D40F020006065A068002118B920683F
:101D4000C26880680090E186012084F85100606DCF
:101D500018B12046FFF74EF938BD2046FFF7FAFCD0
:101D600038BD70B50546846BFEF702FE0246286852
:101D70000068C0051ED42068416821F02001416040
:101D80006421204600F048F818B1606D40F0200052
:101D900060652068416821F0030141600020E08611
:101DA000E087012084F85100606D18B12046FFF7EC
:101DB00021F970BD2046FFF7CFFC70BDF8B5044691
:101DC00040684FF48273984221D1A0684FF4806537
:101DD000B0F5004F01D0A8420AD12068066826F06D
:101DE000400606606068984211D1A068A8420ED0F3
:101DF00000920B4600228021204600F043F8002884
:101E000004D0606D40F0200060650320F8BD0092B2
:101E10000B4600220121EFE7F8B515460E460B46AA
:101E2000009204460122022100F02CF8A0B91348C8
:101E300013490068B0FBF1F04FF47A714843009009
:101E40006068B0F5827F0DD13346002280212046A4
:101E5000009500F017F870B1606D40F020006065EB
:101E60000320F8BD009830B1401E009020688068C3
:101E7000C0430006F6D50020F8BD00002C0000206D
:101E800000366E012DE9F8431E4691468846044609
:101E9000089DFEF76DFD401B351AFEF769FD0746EC
:101EA00025480068C0F3CB30684338E0701C37D059
:101EB000FEF75EFDC01BA84203D215B1009860B3C7
:101EC0002CE02068416821F0E00141606068B0F5D5
:101ED000827F0BD1A068B0F5004F02D0B0F5806FC3
:101EE00004D12068016821F040010160A06AB0F5CA
:101EF000005F09D12068016821F400510160206869
:101F0000016841F400510160012084F85100002073
:101F100084F850000320BDE8F8830025401E00909F
:101F20002068816838EA010004D000214945BDD10C
:101F30000020F0E70121F9E72C0000207047FEF7B0
:101F40001DBD000030B593B030216846FEF7ADF9F5
:101F500014210CA8FEF7A9F91C480024016841F0DF
:101F600080510160006800F08050119018480168AD
:101F700041F4404101600068022500F440401190A6
:101F8000012000904FF4A02001906805CDE9065093
:101F90000420C821CDE908010A900B906846FEF79D
:101FA00073FE08B172B6FEE70F20CDE90C054FF4C1
:101FB0008050CDE90E4003210CA81094FEF77AFD65
:101FC000002801D072B6FEE713B030BD40380240A1
:101FD000007000400248016841F4700101607047E0
:101FE00088ED00E0F0B50268204B214C9F03214DA5
:101FF000214E984207D0B84205D0A04203D0A84253
:1020000001D0B04204D122F0700C4A6842EA0C02BE
:10201000984210D0B8420ED0A0420CD0A8420AD0AC
:10202000B04208D0154CA04205D0154CA04202D0B9
:10203000144CA04203D122F44074CA6822434C6974
:1020400022F08002224302608A68C2620A688262C9
:10205000984201D109690163012141610169C90700
:1020600003D0016921F001010161F0BD00000140D0
:102070000004004000080040000C00400040014007
:10208000004401400048014010B5846842EA032240
:1020900024F47F440A432243826010BD826822F008
:1020A00070020A4342F007018160704710B5036A6D
:1020B000046A24F001040462846924F0F00444EA10
:1020C000021423F00A020A438461026210BD10B5B3
:1020D000036A046A24F010040462846923F0A003F4
:1020E00024F4704444EA023243EA0111826101623D
:1020F00010BD01680C3151E8002F22F4907241E8C4
:102100000023002BF5D10168143151E8002F22F093
:10211000010241E80023002BF5D1016B012909D10F
:1021200001680C3151E8002F22F0100241E8002331
:10213000002BF5D1202180F8421000210163704767
:1021400070B5044600680169E26821F4405111430A
:1021500001612169A068E26908436169114308438C
:102160002168CA6849F20C639A430243CA60206836
:102170004169A26921F440711143416131492068EC
:10218000884202D03049884202D1FEF73DFD01E08D
:10219000FEF72AFDE2690023192164253226B2F5F3
:1021A000004F626828D0A0FB0101930F9200FEF758
:1021B00011F80146B0FBF5F06FF01802504301EB47
:1021C000800006EB0010B0FBF5F000F0F002B1FB70
:1021D000F5F002EB0012B1FBF5F06FF01803584375
:1021E00001EB800006EB0010B0FBF5F000F00F00F3
:1021F00021681044886070BDA0FB010192185B410A
:10220000FDF7E8FF0146B0FBF5F00201B1FBF5F088
:102210006FF01803584301EB800006EBC000B0FBE1
:10222000F5F000F0F80002EB4002B1FBF5F0584386
:1022300001EB800006EBC000B0FBF5F000F00700FA
:10224000D6E7000000100140001401402DE9F843DA
:10225000984617460D460446089E24E0701C22D07E
:10226000FEF786FBA0EB0800B0421AD8CEB120687A
:10227000C168490717D5802D15D0402D13D00168AE
:10228000C94309070FD40168002540680090204623
:10229000FFF72FFF0820606484F840500120BDE85C
:1022A000F8830320FBE72068006835EA000004D0CB
:1022B0000020B842D2D00020F1E70120F9E7FEE784
:1022C000F8B5144C0546E068804760698047616A4C
:1022D000C5F30740C5F3072699B1A26A8AB18DF804
:1022E00000008DF801608DF8025003216846904788
:1022F000E06980470546A0698047206980472846F5
:10230000F8BD216A8847216A30468847216AE8B2C9
:102310008847EDE7480000202DE9F8431A4C0546B0
:102320001746E0688846804760698047616AC5F360
:102330000740C5F30726A1B1A26A92B18DF800004B
:102340008DF801608DF80250032168469047626A5B
:10235000394640469047A069804720698047BDE8DC
:10236000F883216A8847216A30468847216AE8B2A3
:102370008847002505E0E069804708F805006D1CE6
:10238000ADB2BD42F7D3E6E748000020F8B5164CE1
:1023900005460E46E068804760698047A26A45F0BE
:1023A00004058AB1280C8DF80000280A8DF8010078
:1023B0008DF802508DF80360042168469047A069AB
:1023C000804720698047F8BD216AC5F307408847E8
:1023D000216AC5F307208847216AE8B28847216A45
:1023E00030468847EBE7000048000020F8B51A4C5B
:1023F00005461646E0680F46804760698047A26A36
:1024000045F004059AB1280C8DF80000280A8DF8D3
:1024100001008DF80250032168469047A26A3146B8
:1024200038469047A069804720698047F8BD216AF7
:10243000C5F307408847216AC5F307208847216A0A
:10244000E8B28847002504E0216A785D88476D1C62
:10245000ADB2B542F8D3E5E7480000200FB4054B14
:1024600010B503A9044A029800F028F810BC5DF8E2
:1024700014FB000035400008A00000200907090EE9
:10248000002804DB00F1E02080F80014704700F021
:102490000F0000F1E02080F8141D704702E008C82A
:1024A000121F08C1002AFAD170477047002001E0CE
:1024B00001C1121F002AFBD1704700002DE9FF4F18
:1024C0008DB00F460546002606E025280BD0DDE935
:1024D0000F1290476D1C761C28780028F5D111B09A
:1024E0003046BDE8F08F0024A246A1460122E9490A
:1024F00000E0044315F8013F203B02FA03F00842D4
:10250000F7D128782A2810D06FF02F022878A0F170
:102510003001092914D80AEB8A0102EB410144F089
:10252000020400EB010A6D1CF0E701CF5FEA000A2C
:1025300003D544F40054CAF1000A44F002046D1CAF
:1025400028782E2817D115F8010F44F004042A2802
:102550000ED06FF02F022878A0F1300109290AD897
:1025600009EB890102EB410100EB01096D1CF2E767
:1025700057F8049B6D1C28786C280FD006DC4C287B
:1025800017D068280DD06A2814D104E0742810D020
:102590007A280FD10DE044F400140AE044F48014CA
:1025A00001E044F440146978814202D104F58014BA
:1025B0006D1C6D1C28786E281ED00CDC632830D072
:1025C00004DC00288BD0582811D19FE0642867D004
:1025D00069280CD164E073282DD004DC6F2872D0F8
:1025E000702804D194E075286ED078286DD0DDE98C
:1025F0000F129047761C4BE1C4F30250022806D01C
:10260000032809D0042801CF09D0066040E101CF9A
:10261000F117C0E900613BE101CF068038E10670A7
:1026200036E117F8040B8DF8000000208DF801004A
:10263000EB46012003E057F804BB4FF0FF30610781
:102640004FF0000102D40DE008F101018846494530
:102650000FDA8045F8DB1BF808100029F4D108E0F8
:1026600008F1010188468142FADB1BF808100029B5
:10267000F6D1DDE90F23AAEB08008146214600F0E0
:1026800031F9304400EB080604E0DDE90F121BF8D5
:10269000010B9047B8F10108F7D221464846F2E015
:1026A0000A21C4F302524FF0000B0891022A04D011
:1026B00001CFC117032A09D00AE0FF1D27F0070741
:1026C000F7E8020108E02CE01EE01FE000B2C117AD
:1026D000042A01D140B2C117021E71F1000206DACC
:1026E0000023D0EB030063EB01012D2202E0220561
:1026F00004D52B228DF82420012203E0E20701D02B
:102700002022F7E7904653E00A210BE0102109E070
:1027100010214FF0000B44F004044FF00809089119
:1027200003E008214FF0000B0891C4F30252022A83
:1027300004D001CF0021032A06D006E0FF1D27F0B8
:102740000707F7E8020103E080B2042A00D1C0B213
:102750004FF0000822072BD52A78702A07D0DDF821
:1027600020C08CF0100C5CEA0B0C05D00EE040226F
:102770008DF82420012208E050EA010306D030231E
:102780008DF824308DF8252002229046089B83F096
:10279000080353EA0B030BD150EA010201D162078F
:1027A00006D530228DF824204FF00108A9F1010947
:1027B0002A78582A04D038A20B9208AA0A920BE071
:1027C0003AA2F9E75B46089AFDF704FD0B9B9B5C78
:1027D0000A9A521E0A92137050EA0102F2D10A9824
:1027E000ADEB000000F1200B600702D524F480342B
:1027F00001E04FF00109D94502DDA9EB0B0000E033
:10280000002000EB0B0141440890AAEB010AE00311
:1028100006D4DDE90F232146504600F063F8064454
:102820004FF0000908E009A911F80900DDE90F12CD
:10283000904709F10109761CC145F4DBE0030CD592
:10284000DDE90F232146504600F04CF8064404E031
:10285000DDE90F1230209047761C0899481E089039
:102860000029F5DC08E00A980A990078491C0A91C9
:10287000DDE90F129047761CBBF10001ABF1010BB3
:10288000F1DC21465046DDE90F2300F019F806443B
:102890006D1C21E6092801003031323334353637DA
:1028A000383961626364656600000000303132339C
:1028B000343536373839414243444546000000003C
:1028C0002DE9F041044600251E461746880404D42D
:1028D00005E039462020B0476D1C641EF9D5284616
:1028E000BDE8F0812DE9F041044600251E469046E2
:1028F000C80301D5302700E02027880404D505E06F
:1029000041463846B0476D1C641EF9D52846BDE8DF
:10291000F0812DE9F0410646B1F9044090889046D7
:102920000F4614FB00F058431AD54146384606F0CE
:102930009FF8050009D442463946304607F074FC3A
:1029400000280BD195B9012410E03A4641463046A3
:1029500007F06AFC002801D16142B180BDE8F08136
:102960004246304605F0FCFF0028F7D1B480F5E779
:102970007CB5DDE90645CDE9004502F05BF87CBD9C
:1029800002F0A8B810B54FF48C710120FDF7BFFC20
:10299000040003D002F0B8F8204610BD002010BD9E
:1029A00010B5044602F0A9F82046BDE8104001F039
:1029B0004FBB00002DE9F04FADF5007D0023012154
:1029C00040A86A46C15453540C0601D51B2400E0AC
:1029D000002484EA41044C405B1CE1B2FF2BF1DD92
:1029E0000023574C012100BF44F823100D0601D5E8
:1029F0001B2500E0002585EA41015B1CC9B20A2BBA
:102A0000F2DB504C63210025217004F5885301212D
:102A100083F86350565CC6F1FF06865D770047EA8F
:102A2000D617FFB27E404FEA470C4CEAD717FFB2E9
:102A30007E404FEA470C4CEAD717FFB27E404FEA80
:102A4000470C4CEAD717FFB27E4086F06306665407
:102A50009955491CFF29DDDDDFF8EC900021A346E4
:102A600009F5806A09F5006E5FF0FF041BF801604C
:102A7000370601D51B2700E0002787EA460707F045
:102A8000FF0C8CEA06078CEA062C8CEA064686EADE
:102A9000076649F821604FEA36664AF821604FEA36
:102AA00036664EF821604FEA3667284E46F82170A8
:102AB0005E5C36B39DF80E70965D3744B7FBF4FC50
:102AC00004FB1C779DF809C0C75DB444BCFBF4F857
:102AD00004FB18CC10F80CC087EA0C2C9DF80D7084
:102AE0003744B7FBF4F804FB1877C75D8CEA074757
:102AF0009DF80BC06644B6FBF4FC04FB1C66865DC7
:102B000001E02F46002687EA0666114F47F821604C
:102B100007F580674FEA366647F8216007F580675A
:102B20004FEA366647F821604FEA3667094E46F8A5
:102B30002170491CFF2999DD0DF5007DBDE8F08F5E
:102B4000FC2E0020FC0C0020FC0D0020FC190020B5
:102B5000FC1E0020FC2A002001F0DABF02F042B87F
:102B60002DE9F041446805461E46A0681746884690
:102B700030B110210120FDF7CAFBE06040B10446EE
:102B80000020C4F80080C4E901676C60BDE8F081F2
:102B90006FF06900FAE738B51D46134604466A46E9
:102BA00002F006FA00281BD100986FF06301B0B163
:102BB00020680078000612D405E0401C20600098D0
:102BC000401E00900DD020680278002AF5D00098B1
:102BD000042804D805D120680078000601D50846ED
:102BE00038BD0020286008E020682968007840EAA5
:102BF000012028602068401C20600098401E009042
:102C0000401CF1D138BD000070B50446082802D937
:102C10004FF0FF3070BD4FF4847000EB4410054658
:102C20001021FFF7B3FB2846FFF74AFB0028FAD133
:102C30004FF4027000EB44101F21FFF7A7FB0D4972
:102C40000120A0404A8882434A808A8882438A8041
:102C50000949002021F814000649891D08554FF440
:102C6000427000EB44142046FFF72AFB0028FAD1FB
:102C7000012070BD30000020EC0C002070B51C4617
:102C800015460E4605F0F4FD30B123462A4631467E
:102C9000BDE8704005F0DEBB004870BD80BFFFFF9F
:102CA0002DE9F04117460E460446082803D94FF097
:102CB000FF30BDE8F08160014FF001080830FFF7F8
:102CC000FFFA00F00F00012802D06FF00400F0E7D7
:102CD0004FF4427000EB44100546FFF7F1FA132859
:102CE00002D06FF00200E4E73078717801EB002049
:102CF000B17801EB0020F17801EB0020411C2CD0D1
:102D000058B36FB340F6084000EB4410042231463C
:102D1000FFF76CFB41F20800390A00EB4410FFF7A3
:102D200035FB41F20810F9B200EB4410FFF72EFB1F
:102D30004FF4847000EB441006460421FFF726FB95
:102D40003046FFF7BDFA0028FAD1164908FA04F018
:102D5000498808421AD00020ABE76FF00B00A8E7C3
:102D60006FF00A00A5E72046FFF7AAFA000706D58C
:102D700020460821FFF70AFB6FF00C0099E7284670
:102D8000FFF79EFA30B96FF0030092E74FF402703C
:102D900000EB44142846FFF793FA1728E3D10120EB
:102DA00087E700003000002010B50C4606281ED230
:102DB000DFE800F003070B10141820460DF0D4FFD5
:102DC00013E020460DF0C8FE0FE02078BDE810406B
:102DD0000DF0F6BF0DF0ECFE207006E020460EF080
:102DE00001F802E020460DF0E6FE002010BD4FF095
:102DF000FF3010BD2DE9F0410C46002102464F1E68
:102E000008464FF498554FF4A056102A63D2DFE8D5
:102E100002F0080B17131A1E222C3645484C595045
:102E2000555C0EF08DF84DE014B1204604F1080118
:102E3000BDE8F0410DF0D3BE20880DF045FE41E025
:102E40000DF06CFE05E020880DF080FF3AE00DF0FB
:102E500074FE208036E02088010A2846FFF796FAA3
:102E600021783046FFF792FA2CE03046FFF728FA37
:102E700006462846FFF724FA06EB0020E9E7174844
:102E800082782270C27862700279A2704279E27010
:102E900082792271C0796071A17113E00EF0F5F8AA
:102EA00010E020460EF006F90CE020460EF0AEF8D9
:102EB00008E02078BDE8F0410EF021B90EF0D8F816
:102EC00005E020700020BDE8F0810EF0C6F8C0B229
:102ED00041B2491CF5D13846F5E700004800002012
:102EE0007CB505460C46684606F0D2FD0222214616
:102EF000684607F0E8F904000CD10221284605F0E5
:102F0000E7FD002805DB6946284605F0F9FD0028A5
:102F100000DD034C684606F0FCFC20467CBD00004A
:102F200080CFFFFF2DE9F8430E461F46904604462A
:102F3000002105F0CDFD010018482CD0002E2ADB21
:102F4000204607F068F904F11005B0423B464246BE
:102F500004D93146284606F0C2FC06E02146284640
:102F600000F020F810F10E0F14D0002813D104F156
:102F7000300000902A461838234604F1080105461F
:102F800006F0ECFB002806D121462846BDE8F843B0
:102F9000FFF7A6BF0248BDE8F883000080CFFFFF1F
:102FA00080CEFFFF38B50446009313460A4603213E
:102FB00007F03FF8002806D12146BDE8384001223D
:102FC000084607F080B938BDF8B50D460968114EBE
:102FD000531A022B0CDB104B1B78012B0AD00B88E9
:102FE000ADF800305CBA891C521A2960A24205D2A1
:102FF0003046F8BD0C88ADF80040F4E7224607F0F3
:103000003CF810B1A0F54450F8BD28682044286071
:103010000020F8BD80CFFFFFCC2501082DE9FE4F31
:1030200005469046894601A806F032FD05F14801A3
:1030300005F110000C46824605F062FD05F14007DF
:1030400005F1380680B15146204605F0A3FD040085
:103050006AD10121304606F09AFE040064D10121B4
:10306000384606F094FE1EE00121304605F030FDA2
:10307000E8B132461146084606F06EFF040053D10F
:1030800031462A46084606F0D6FE04004CD13A46A0
:103090001146084606F060FF040045D139462A462D
:1030A000084606F0C8FE04003ED1BDE8FE8F434648
:1030B0004A4629463046FFF775FF040034D143469F
:1030C0004A46294601A8FFF76DFF04002CD101AA4A
:1030D0003146384606F040FF040025D139462A46DD
:1030E000084606F0A8FE04001ED139462A460846C6
:1030F00006F0D4FC040017D1394601AA084606F0B0
:103100002BFF040010D139462A46084606F093FEEC
:10311000040009D105F13000394600902B46524693
:10312000084606F01BFB044601A806F0F2FB204609
:10313000BBE710B580210120FDF7E9F8040001D0BC
:1031400002F060FF204610BD022805D0032803D0FE
:10315000042801D00020704701207047496840686A
:1031600002F006BE406802220A7002A26830C1E97D
:103170000120704765636B65792E510010B50446D8
:1031800002F030FF2046BDE8104000F061BF40680B
:10319000C06B7047022803D0032801D0002070477D
:1031A000012070472DE9FC5F83460C9DDFF8C0814C
:1031B00018691E4617460C4601F1080A01F110096C
:1031C00090B107F110000021009005F081FC70B172
:1031D00006F110000021019005F07AFC48B10121B0
:1031E000019805F075FC50B14046BDE8FC9F3146A2
:1031F00000E039462046BDE8FC5F02F02FBE009B90
:1032000029461A46584606F094FE0028EDD105F1ED
:1032100008012A4688465846009B06F08AFE002888
:10322000E3D12A4633461146584606F082FE00286E
:10323000DBD1424606F108031146584606F079FEF6
:103240000028D2D12A463B461146584607F056F888
:103250000028CAD107F10803424611465846019397
:1032600007F04CF80028C0D10021284605F030FCBA
:10327000002869D02B4649465846009A06F059FE68
:103280000028B2D12B4605F110011A46894658464E
:1032900006F04FFE0028A8D105F118012B464A463A
:1032A0000E46584606F045FE00289ED14A463B464B
:1032B0001146584606F03DFE002896D1494628465C
:1032C00005F068FC002890D101222946584606F0F6
:1032D0004DFF002889D143461A462146584606F03C
:1032E00028FE002881D122462B461146584607F079
:1032F00005F800288AD1224633461146584606F082
:10330000FDFF00288CD14A4623461146584606F058
:10331000F5FF002884D14A4643461146584606F038
:1033200008FE002884D1324611465846019B06F01B
:1033300000FE002885D102B033464A465146584621
:10334000BDE8F05F06F0DABF0021404605F0C0FBA3
:1033500020B12046BDE8FC5F02F0F6BE02B02B466D
:103360003A4621465846BDE8F05F00F0CFB800006D
:1033700080B0FFFF2DE9FF410E4605460021304693
:1033800005F0A6FB1E4F002813DB06F10800002104
:10339000044605F09DFB00280BDB291D304605F097
:1033A000AFFB002805DA291D204605F0A9FB0028FF
:1033B00003DB384604B0BDE8F081684606F068FBE0
:1033C00002A806F065FB23461A466946284606F021
:1033D000B0FD04000CD1324602A9284600F0AFFD32
:1033E000040005D102A9684605F08AFB00B13C46FD
:1033F000684606F08EFA02A806F08BFA2046D9E756
:1034000080B3FFFF2DE9F0470D46994690460446EC
:10341000491CFCF74AFF00260FE000270AE000BF26
:1034200005FB0761484606F0FDFAA15DB840084378
:10343000A0557F1C4745F3D3761CAE42EDD3002246
:10344000012117E0605C04EB010803461040534083
:1034500003F0010218F801CCC2F101061CFB06F7CB
:1034600003EA070202437B4063544CEAC61008F8A3
:10347000010C491CA942E5D9BDE8F0872DE9FF47B9
:103480000446DDE90C951F4690460E46684606F058
:10349000FFFA02A806F0FCFA04F13400002182468B
:1034A00006F0C0FA012803D0174804B0BDE8F08741
:1034B0000021304606F0B6FA40B1002028703146AF
:1034C000684605F067FB040016D101E00120F5E72E
:1034D0003246514602A806F02EFF04000CD12A788D
:1034E00002A9684606F0FBFD040005D16B464A467A
:1034F00039464046FFF786FF02A806F00AFA6846FA
:1035000006F007FA2046D0E780B0FFFF2DE9F84F1C
:103510000E46C168074602F110001C46154603F12D
:10352000180B03F1100903F10808824600297DD029
:103530002B461A464146384606F0FBFC002876D159
:10354000032342462146384606F0DAFC00286ED1B5
:1035500007F10C000021009005F0BAFAF8B15346CB
:103560001A464146384606F0E4FC00285FD143463F
:103570001A464946384606F0DCFC002857D14A4630
:1035800041463846009B06F0D4FC00284FD1224625
:1035900043461146384605F04BFA002847D105F15D
:1035A00008031A4649463846009306F0C2FC002834
:1035B0003DD101224946384606F0D8FD002836D1D3
:1035C0004B462A464146384606F0B3FC00282ED129
:1035D00001224146384606F0C9FD002827D14B4656
:1035E0001A465946384606F0A4FC00281FD101228D
:1035F0005946384606F0BAFD00287CD123461A46C3
:103600004946384606F095FC002874D14A464346A0
:103610001146384606F072FE00286CD14A464346F1
:103620001146384606F06AFE002801E03CE062E000
:1036300061D142464B461146384606F05FFE0028EF
:1036400059D1424623461146384606F072FC0028FE
:1036500051D142465B461146384606F04FFE0028DF
:1036600049D1534659463846009A06F062FC002874
:1036700041D101225946384606F078FD00283AD15A
:103680004946304605F086FA002834D1414606F115
:10369000080005F07FFA00282DD1594606F11000E8
:1036A000BDE8F84F05F076BA03461A46414638465B
:1036B00006F03FFC00281ED143462A4649463846BC
:1036C00005F0B6F9002816D143462A465946384631
:1036D00006F014FE00280ED15B464A4641463846A5
:1036E00006F027FC002806D103234246214638462F
:1036F00006F006FC51E7BDE8F88F816D09B1C06D99
:1037000008B1002070470120704700002DE9F05FEC
:103710000446DDE91276DDE90BA91D46001DDDF842
:1037200028B0DDF8448000F07BF82DB15A462946D8
:1037300004F10C0000F074F84A46514604F11400FC
:1037400000F06EF83A4604F134004146074600F0B6
:1037500067F8DDE90D1204F11C0000F061F8DDE905
:103760000F1204F1240000F05BF801252586658620
:103770000748E062201D05F077F9E063384605F060
:1037800073F9C4E910050020C4E91660BDE8F09F94
:10379000EC25010870B50546886C0C4648B1B5F9B2
:1037A000040000280CDA0021284605F091F970B9D0
:1037B00006E02946221DBDE87040084606F03BBBE6
:1037C000284605F051F9E16BB0EB410F01D91348E0
:1037D00070BDA16C2846884704E02946221D084692
:1037E00005F03FF9060017D1B5F9040000280DDAFD
:1037F0000021284605F06CF90028EED106E02946A4
:10380000221D084606F010FD060005D1211D2846A0
:1038100005F076F90028F2DA304670BD80B0FFFF7F
:10382000012383809208C280016070472DE9FF4F19
:1038300087B0054600F124010A98DDF858B0083039
:1038400005F05EF928B905F11C010A9805F058F950
:1038500038B10021286C8946B0F5C07F03D3052418
:1038600002E00121F6E70424B9F1000F04D0284654
:10387000641CFFF742FF10B9042C00D90424286C03
:10388000A04200D80224A046641E2044B0FBF8FAEF
:103890000121A140CEB2B9F1000F01D0AC6D14BB33
:1038A00018213046FCF733FD040001D0002709E061
:1038B000224F26E007EB470004EBC00002F0D8FBE4
:1038C0007F1CFFB2B742F5D3CDE900AB434621469A
:1038D00028460A9A00F0E0F9070012D1B9F1000F6A
:1038E00001D0C5E91646DDE9141203A8234680E895
:1038F00006088DE84005DDE90812284600F020F8AA
:103900000746A86DA04210D07CB1002508E000BF9A
:1039100005EB450004EBC00002F09AFB6D1CEDB214
:10392000B542F5D3204600F093FB17B1089802F09A
:103930008FFB0BB03846BDE8F08F000080B2FFFF70
:103940002DE9F04FB7B0944643AA8346DDE941071D
:1039500092E850010D4636A9CDE9000199463B4653
:1039600005AADDF800A161465846FFF787FD00284B
:1039700023D105A8CDE900070DF1080C53468CE8CA
:1039800050014A462946584600F01AF8002814D13A
:103990009DF8D8202946584600F070FA00280CD12E
:1039A0003CB1334622462946584600F021FA002809
:1039B00003D12946584600F07DF837B0BDE8F08FB6
:1039C0002DE9FF4F8FB088461DA99A4691E89002D5
:1039D000934609A81C9E02F04BFB042101A80AF0A3
:1039E0003AFB305D009053465A4641460F9800F02E
:1039F0006BFA050029D12FB34B463A4641460F9842
:103A000000F0F6F9050020D11CE0424601AB11465A
:103A1000641E0F98FFF77AFD050016D1305D009007
:103A200053465A4609A90F9800F04EFA05000CD1EA
:103A30004246009709AB11460F98FFF7B3FB05000C
:103A400001D002E001AF002CDFD109A802F000FB99
:103A5000042101A80AF0F4FA13B02846BDE8F08F5B
:103A60002DE9FE4F8A46DDE90D659846914683466D
:103A70000F4C11460C9F02F05DF9020015D1414632
:103A8000584602F0CFF902000FD12246584602F004
:103A9000FDF9012809D10097CDE9016543464A4661
:103AA00051465846FFF7C2FE02461046BDE8FE8F5B
:103AB00080B0FFFF2DE9FC410D46064605F11000E0
:103AC0000021804605F004F8002834D0684605F04F
:103AD000DFFF321D4146684605F0E0FF040026D1B5
:103AE00005F108026B4617461146304606F021FAEA
:103AF00004001CD16B461A461146304606F019FAEE
:103B0000040014D12A466B461146304606F011FADD
:103B100004000CD13A466B461146304606F009FACD
:103B2000040004D10121404606F031F904466846FC
:103B300005F0EFFE2046BDE8FC8100002DE9FC5FAA
:103B400017460E468146022A04D20968FFF7B2FFE3
:103B5000BDE8FC9F08211046FCF7D9FB5FEA00088E
:103B60000ED0684605F094FF394640460AF073FAD5
:103B700031684046103105F00DF805007DD101E0B7
:103B80004448E5E701240CE056F8243008EBC40172
:103B9000A1F108024846103306F0CBF905006CD1BC
:103BA000641CBC42F0D308EBC7010839084609F190
:103BB000040205F073FF05005FD17C1EB4B108EB71
:103BC000C402A2F1080392469B466946484606F0A5
:103BD000B0F9050051D156F82430524659464846AE
:103BE000103306F0A6F9050047D104E041466846C7
:103BF00004F0D0FFF7E756F824206B460832114650
:103C0000484606F096F9050037D16B461A4611462C
:103C1000484606F08EF905002FD156F824106B4661
:103C20000A46484606F085F9050026D156F82410C4
:103C30006B4608310A46484606F07BF905001CD160
:103C4000B9F80A1056F8240006F0B1FA050014D1AC
:103C500056F82400B9F80A10083006F0A8FA050052
:103C60000BD156F824000121103006F090F8050021
:103C700003D10CB1641EA1E7FFE7684605F049FED9
:103C8000394640460AF0DCF9404600F0E1F92846A2
:103C90005EE7000080B2FFFF2DE9FF4FA3F10109AD
:103CA0004FF0010A97B00AFA09F00C46C7B29046E5
:103CB00000251C2103A8249EFCF7F7FA04210AA87A
:103CC0000AF0C9F94146204602F0C8F85FEA000848
:103CD00078D109FB06F922E0B5FBF6F10AFA01F00A
:103CE000C0B200EB400104EBC10BB5FBF6F106FBE3
:103CF000115151B9400800EB400004EBC001584697
:103D000002F0ACF85FEA000869D15A460AAB1146E6
:103D10001798FFF7FBFB5FEA000860D16D1CA9450F
:103D2000DAD8002203A901208A4609E000EB40010D
:103D300004EBC10340064AF82230000E5146521CE3
:103D4000B842F3D31798FFF7F9FE5FEA000846D1AF
:103D500001260DF1280B1BE006EB4600354604EB6F
:103D6000C00911E005EB450004EBC002701900EB3F
:103D7000400004EBC0014B46CDF800B01798FFF7A8
:103D800011FA5FEA00082AD16D1EEBD27006060E0A
:103D9000BE42E1D30022504608E000BF02EB4201E0
:103DA00004EBC101183140F82210521C511CB942D9
:103DB000F4D303A91798FFF7C1FE5FEA00080ED1FC
:103DC00000250AE00BE000BF05EB450004EBC00056
:103DD000103005F09EFD6D1CEDB2BD42F4D3042100
:103DE0000AA80AF02DF91BB04046BDE8F08F00008C
:103DF000FEB506461C4617460D4601A805F048FECE
:103E00003B46321D022101A8009406F012F904007D
:103E100029D105F1100201AB1146304606F089F8B0
:103E2000040020D105F1080201AB174611463046C7
:103E300006F07FF8040016D101AB1A461146304651
:103E400006F077F804000ED12A4601AB1146304641
:103E500006F06FF8040006D13A4601AB1146304631
:103E600006F067F8044601A805F053FD14F10E0FA3
:103E700000D1014C2046FEBD00B3FFFF2DE9FC41FF
:103E8000044615460E46684605F002FE06F1080097
:103E90000021064604F01CFE08B1012700E00027BF
:103EA0003246211D684606F046FA040006D107EAAC
:103EB00005026946304606F012F90446684605F0E8
:103EC00028FD2046BDE8FC812DE9F05F1F460A9ED3
:103ED000924689468346C6F3450500241DE0AC4260
:103EE00001D1012200E0002204EB44010AEBC101F0
:103EF0008846484606F0F3F800281ED1AC4201D1AE
:103F0000012200E0002208F1080109F1080006F092
:103F1000E6F8002811D1641CE4B2BC42DFD3F209F8
:103F200049465846FFF7AAFF002806D109F11000BC
:103F3000BDE8F05F012105F02ABFBDE8F09F2DE943
:103F4000F04117460E460446134605F0F2FF0028DE
:103F500034D1E06838B1324604F10C0311462046F2
:103F600004F066FD17E031460322084606F0ABF97F
:103F700004E03146221D084604F073FD050009D116
:103F8000B6F90400002805DA0021304604F0A0FD4F
:103F90000028EED12846002810D132463B46114673
:103FA000204605F0C6FF002808D1324604F114036C
:103FB0002046BDE8F041114604F03ABDBDE8F0816D
:103FC0002DE9FF5F8A46DDE9104B80469700994650
:103FD0001646394620460E9DFCF767F90120206001
:103FE0000DF1040CCDF800A08CE8400A21463346C0
:103FF0002A46084605F058F804EB86043A4641463E
:104000002046FCF72BF9214602270EE00DF10408AB
:10401000CDF800A088E8400A01EB86053346224629
:10402000284605F041F829467F1C0F988742EDD3BA
:10403000BDE8FF9F38B504468DF800000A23012231
:1040400069460248FDF7F2FC204638BD4C090020C5
:1040500010B5002821D0114B0022001F196803E081
:10406000814203D80A4649680029F9D152B1136840
:10407000841A9C4204D1006818441060104602E083
:10408000506000E0186039B102680B1A934203D106
:104090000B681A4402604968416010BDA40000200A
:1040A00013460A46022102F086B910B54FF4C471D6
:1040B0000120FCF72CF9040001D002F078F9204629
:1040C00010BD10B5044602F065F92046BDE8104069
:1040D000FFF7BEBF2DE9F04186B00025044601A8D8
:1040E0000595CDE9000502A90295039504950B46B7
:1040F0001022204601F0F4F900285BD184F88151A8
:10410000DDE90201C4E93001DDE90401C4E932015D
:104110000020C4E91000C4E91200042504EB451195
:1041200004EB05104030403100F04AF86D10002DCE
:10413000F4DCDFF88880082698F80000012816D003
:1041400004EB061505F14007D5E9100100F08FFFDB
:1041500038607960D5E91201083700F088FF3860CF
:1041600079607610002EE7DC022501260EE004EBD4
:10417000061000F14801D0E9102302644364D0E93D
:1041800012200A604860ECE701260DE0A81904EB54
:10419000061204EB051104EB0010102340304031EF
:1041A000403209F09EFE761CAE42EFDB6D00102D12
:1041B000EADB002006B0BDE8F0810000E035010830
:1041C0002DE9F0411F4F0E460446397800F10805ED
:1041D00006F10800012928D002F08DFA00F047FF0F
:1041E00049084FEA300000F042FF28606960217AF8
:1041F000F079254641EAC01121723878012830460D
:1042000019D002F078FA00F032FF49084FEA300086
:1042100000F02DFF28606960F17B2078C90700D08D
:10422000E12148402070BDE8F08102F064FA4908BD
:104230004FEA3000D9E702F05EFA49084FEA300051
:10424000E8E70000E0350108074900F10C020B78AF
:10425000C168012B00D009BA01F1010101D111603F
:10426000704708BA10607047E03501082DE9FC4737
:104270000546DDE90A98002001909A4601A81746F4
:104280000E460B460090102205F5B071284601F04D
:1042900027F9040006D01021304606F009FB20461D
:1042A000BDE8FC8795F88001EC1904F5B87428B9CD
:1042B0002146084653464A4609F0F2FDF119534695
:1042C0004A46404609F0ECFD95F88001012805D1E9
:1042D000214608465346424609F0E2FD0020DFE74A
:1042E000134690F88121002A04D100F140021846BB
:1042F00000F002B8704700002DE9FF5F8A46C97BD5
:10430000814601F00F0002EB00100B09017A1546FF
:1043100001F00F040178EB460A07D0E902160909FB
:1043200041EA067142EA1612CDE90212D0E90021F3
:104330003D4E100940EA017036F81420090981EA5F
:104340000241CDE9000105EB0312102359465846FE
:1043500009F0C7FD5FF00E041AF8040000F00F0327
:104360000709029800F00F0200980107DDE9020C2E
:10437000000940EA0C7041EA1C11CDE90201DDE9B7
:104380000001000940EA017036F81220090981EAAB
:104390000241CDE9000105EB0312594610230846FE
:1043A00009F09FFD029800F00F0200980107DDE977
:1043B0000203000940EA037041EA1311CDE902014A
:1043C000DDE90001000940EA017036F81220090910
:1043D00081EA0241CDE90001594605EB071210239D
:1043E000084609F07EFD641EB6D50F4809F10804A1
:1043F000801E007801280ED0DDE900014D4600F056
:1044000036FE28606960DDE9020100F030FE2060C0
:104410006160BDE8FF9FDDE90001C9F80000C9F84F
:104420000410DDE90201F2E7E23501082DE9F0416F
:1044300042F2086101EB401542F20871002601EBDF
:1044400040142846FDF73CFF07462046FDF738FF9D
:1044500000EB072007043F0C09D02846FDF730FF8A
:1044600006462046FDF72CFF00EB062086B2BE4232
:10447000E7D13046BDE8F0812DE9F04142F2080174
:1044800001EB401542F20811002601EB40142846CA
:10449000FDF716FF07462046FDF712FF00EB072049
:1044A00007043F0C09D02846FDF70AFF06462046C0
:1044B000FDF706FF00EB062086B2BE42E7D130468C
:1044C000BDE8F08118B112B10020116070470148B9
:1044D00070470000009FFFFF70B51546044608288E
:1044E00002D94FF0FF3070BD600108306FF0040654
:1044F0000D2967D2DFE801F0070C11141E2766377B
:1045000044484C535D00FDF7DBFE00F0F00002E094
:1045100041F208603EE0287049E041F2085039E07D
:1045200041F2083000EB4410FDF7CAFE064641F2A6
:10453000082011E040F6084000EB44100422294610
:10454000FDF7EAFE33E041F2081000EB4410FDF7FE
:10455000B7FE064641F2080000EB4410FDF7B0FE3E
:1045600006EB002022E0FDF7ABFE00F00F00012873
:1045700026D142F6087000EB4410FDF7A1FE15E0CD
:104580002046FFF779FF11E02046FFF74FFF0DE0CF
:104590004FF4427000EB4410FDF792FEBBE7FDF7CD
:1045A0008FFEC007F0D1094830F8140028800120A0
:1045B00070BDFDF785FE012802D00548005DAAE721
:1045C000304670BD6FF0010070BD0000EC0C0020A3
:1045D000360000202DE9F04385B080460F46DDE926
:1045E0000C9000211D4616460391049104F040F9F9
:1045F00004000AD0684604F049F9002221466846C2
:1046000004F04AF9040023D103E0144805B0BDE8E2
:10461000F083684604F078F9040019D1082203A950
:10462000684604F085F9040012D13A4641466846CE
:1046300004F07EF904000BD12A463146684604F0A6
:1046400077F9040004D14946684604F01BF8044693
:10465000684604F02BF82046D8E7000080BFFFFF33
:104660008AB00024ADF80840FCF790F9FDF76AFC29
:10467000FDF72EFA8548016841F480010160006869
:10468000002200F48000009011463820FCF7E0F989
:104690003820FCF7CFF9002211463A20FCF7D8F970
:1046A0003A20FCF7C7F9FDF76FFA7A4878490160BC
:1046B0004FF4E131C0E901140C21C460C0E90441A8
:1046C0008461C461FDF74CF908B172B6FEE7FDF7ED
:1046D0007BFA4FF4FA70FCF743F86FA0FDF7BEFECB
:1046E0000CF094FB6EA0FDF7B9FE0CF025FB6EA05C
:1046F000FDF7B4FE0CF0B0FA6DA0FDF7AFFE0CF0C4
:10470000B7F96DA0FDF7AAFE6D4D182205F108015D
:10471000A8690090A88BADF80400A87F8DF806006A
:1047200003A8FBF79BFD0DF10C0C9CE80F0009F0B2
:104730005DFDA8690090A88BADF80400A87F8DF8F6
:104740000600182205F1080103A8FBF787FD0DF10B
:104750000C0C9CE80F0009F02DFF00200CF05CFB16
:10476000010003D557A0FDF779FEFEE75CA0FDF739
:1047700075FE08F033FA044610E000BF08F032F886
:1047800001465FA0FDF76AFE54F8040F48B108F037
:1047900029F801465CA0FDF761FE241D2068002871
:1047A000ECD15B4C40F2BB16202394F82400324637
:1047B00001210AF067FC010003D056A0FDF74EFE70
:1047C000FEE76F68B04642F2107600BF94F824000E
:1047D00042463B49FEF764FA014601280AD011F12E
:1047E0000D0F03D06868C01BB042EFD34EA0FDF799
:1047F00035FEFEE751A0FDF731FE544E534D803695
:1048000008E0A84206D0B04204D0414250A0FDF7D3
:1048100025FEFEE73E4808F0C5F80028F1D13C48E7
:1048200007F0D8FF014657A0FDF718FE4FF40065CA
:1048300029465C48FBF739FD5BA15A48FBF75EFD52
:104840005848FBF747FD02465649314808F056FDE7
:1048500094F8240002AA0921FFF73EFEBDF80800E3
:104860000028F5D02946884201D9ADF808104D48F6
:10487000FBF71BFDBDF808204A49254808F006FB58
:10488000484950A0FDF7EAFDE2E700003038024059
:10489000004400404C0900202031200A00000000A4
:1048A0002032200A000000002033200A000000000F
:1048B0002036200A000000002037200A00000000F7
:1048C000000000202053534C20696E697469616CAC
:1048D000697A65206661696C65642025640A000058
:1048E00020537570706F72746564206369706865B9
:1048F000727375697465206C697374730A000000C3
:1049000020252D3432730A002025730A0000000090
:10491000540B002020536F636B6574206661696CD3
:1049200065642025640A000020436F6E6E65637421
:10493000206661696C65642025640A0020436F6EFF
:104940006E65637465642025640A00000097FFFFAC
:10495000206661696C65640A202021206D626564AF
:10496000746C735F73736C5F68616E647368616BA2
:10497000652072657475726E6564202D30782578B7
:104980000A000000206F6B0A202020205B20436972
:10499000706865727375697465206973202573206A
:1049A0005D0A0000AC0000202057357830302054DC
:1049B0004350206F7665722053534C207465737496
:1049C0000A00000025730000F0B50B30154D20F0F3
:1049D00007010024144A0FE003688B420BD38B427B
:1049E00005D95E1A43184768C3E9006700E04368C9
:1049F000136002C004E0021D10680028ECD12046BC
:104A0000002802D1286808B10020F0BD064A0748F6
:104A10001060074A121A22F00702C0E900240120A0
:104A20002860D7E7A8000020A4000020442F002021
:104A3000401F01202DE9FF479846DDE90C6415462B
:104A40000F468146012905D027B16FF0200004B040
:104A5000BDE8F0871DB3280702D06FF02100F6E70C
:104A60001946EFB9102231466846FBF7F7FB23469B
:104A700032463946484600F02DF80028E7D1214655
:104A800010234246084609F021FA102269464046A2
:104A9000FBF7E4FB1034103D06F11006E2D117E0FD
:104AA0000A4610233146204609F010FA23461A46DA
:104AB0003946484600F00EF80028C8D12146103487
:104AC000103D06F11006EBD110224046FBF7C6FB65
:104AD0000020BCE730B41446012909D019B130BC1C
:104AE0006FF020007047214630BC1A4601F008BE26
:104AF000214630BC1A4602F053B8002803D04FF4C8
:104B00008C7105F0D5BE70474FF48C71FBF7CDBBAF
:104B10002DE9F04FC7B0054616460F466846FFF729
:104B2000F3FF0020686005F1080432463946684604
:104B300000F058F84690E8BB009828600198694654
:104B400001EB8000009900EB0111886801C4C8687E
:104B500001C4086944F8080B486944F8040C083992
:104B60002A682AE01E48002500F5905900F5B05A41
:104B700000F5D05C00F5F05B08C950FA83F6377891
:104B80006D1C59F82760C3F3072710F807805AF8FF
:104B900028707E40C3F3074700EB1363C75D93F8AB
:104BA00000805CF827705BF828305F407E4040C48E
:104BB000042D00E00CE0DFDB2039521E002AD1DC9E
:104BC00008682060486860608868A060C868E06025
:104BD0006846FFF792FF469847B0BDE8F08F0000A7
:104BE000FC0C00202DE9F04116460F460546802AB0
:104BF00008D0C02E08D0B6F5807F0BD06FF01F0014
:104C0000BDE8F0810A2000E00C20644C2860206898
:104C100010B105E00E20F8E7FDF7CCFE0120206082
:104C20005F490020686005F108040A7808E007EB96
:104C30008001012A096800D109BA44F82010401CFB
:104C4000B0EB561FF3D3574A2968A2F508500A293A
:104C500004D00C292CD00E2929D157E05FF0000395
:104C600054F80C5B52F823104D4002CCC1F30726D8
:104C7000C1F30747865DC75D86EA0726754000EBEE
:104C80001166367885EA064550FA81F636785B1C5F
:104C900085EA0665256054F80C6C6E40666054F831
:104CA000085C75406940C4E902510A2BD8D373E00F
:104CB0005FF00003256852F823104D406169C1F38D
:104CC0000726C1F30747865DC75D86EA072675405C
:104CD00000EB1166367885EA064550FA81F636789B
:104CE0005B1C85EA0666A66165687540E561A66895
:104CF0006E402662E5687540656226696E407140C7
:104D0000C4E90A611834082BD4D345E05FF00005EC
:104D1000236852F825104B40E169C1F30726C1F31F
:104D20000747865DC75D86EA0726734000EB11667C
:104D3000367883EA064350FA81F6367883EA0666C7
:104D40002662636873406362A6685E40A662E36899
:104D50007340E36250FA83F73F782669C3F3074C48
:104D60007E40C3F3072710F80CC0C75D00EB136348
:104D70003F0287EA0C471B787E4086EA0363236381
:104D800066696D1C5E406663A36973405940C4E95F
:104D90000E312034072DBBD3002031E774000020F2
:104DA00050240108FC2E002010B503E08469FFF7B1
:104DB0004FF920460028F9D110BDF8B51D4616461A
:104DC0000F46044630236A4600F0F2F8002805D169
:104DD0002068391A012902DA6FF05F00F8BD007807
:104DE00030602068009906234718321D3946204656
:104DF00000F0DEF80028F1D12068B060206871680A
:104E000008442060B84204D10C21284605F050FD2A
:104E100016E00078286020682A1D401C2060394672
:104E2000204600F06AF80028D8D12068A8602068E1
:104E3000696808442060B84202D06FF06500F8BD90
:104E40000020F8BD70B514460E460546032300F059
:104E5000AFF800280AD1206848B1401E20602868B9
:104E600000782071072805D96FF0630070BD6FF0DE
:104E70005F0070BD2868401C2860A0602868216819
:104E800008442860B04202D06FF0650070BD002079
:104E900070BD30B514460546032300F089F800289C
:104EA00009D120686FF0670120B1401E206028689A
:104EB00002780AB1084630BD401C2860002030BD91
:104EC00038B51546044601236A4600F071F80028FB
:104ED00004D10098012802D06FF0630038BD20682B
:104EE000007800B1012028602068401C206000206C
:104EF00038BD13460222FDF74EBEF0B503686FF0D1
:104F00005F06CC1A012C23DB1D782F0604D45C1C11
:104F100004601B78136016E015F07F0301D0042BAA
:104F200002DD6FF06300F0BD9C4211DD002404E05F
:104F300004681568247844EA052414600468641C35
:104F400004605B1EF4D200681268081A824201D91C
:104F50003046F0BD0020F0BD38B5154604460223AA
:104F60006A4600F025F8002808D121682846009AF2
:104F700005F083F82168009A1144216038BD0000D3
:104F800030B587B00024CDE90432146054609460D9
:104F9000D46004AA054DCDE902520094DBB201941D
:104FA000FF2200F022F807B030BD0000612B00089E
:104FB00030B404680D1B012D03DA6FF05F0030BCC4
:104FC000704725789D4202D06FF06100F7E7641CBE
:104FD000046030BCFFF791BF10B503E0C468FFF771
:104FE00037F820460028F9D110BD2DE9F84F1F46AB
:104FF000DDE90AA990460E46044630236A46DDF8EC
:1050000030B0FFF7D5FF002808D120680099084488
:10501000B04201D1206826E06FF06500BDE8F88F4E
:10502000411C2160057805EA0800B84202D06FF003
:105030006100F3E76A4631462046FFF75EFF00282D
:10504000ECD105EA0A00484509D1BBF1000F06D0B2
:1050500022682946009B0D98D8470028DED1206899
:10506000009908442060B042DAD30020D6E702BAA3
:1050700008BA1146704700002DE9F04786B0154682
:10508000DDE913A2DDE91194DDE90F67DDF838C031
:10509000974203D3A7EB0208A04503D9124806B0F4
:1050A000BDE8F0870C464146C8463744A7EB0209E5
:1050B0000768BF88C7F30337062F02D00A4880303D
:1050C000EDE7CAF8001003AFCDF8089087E8440177
:1050D000CDE9003CC06B2B46224601F091F810F15F
:1050E000120FDCD10148DAE7009FFFFF009DFFFFB0
:1050F0002DE9F04F87B00DF14008814698E88018FF
:10510000DDE91554DDE913060CEB0408B04503D9BD
:10511000144807B0BDE8F08F1646624600EB0C0855
:10512000D9F800C0BA465F46BCF804C0CCF3033CD3
:10513000BCF1060F05D00B48803029682144296056
:10514000E7E70DF1100B2A608BE81101CDE9006350
:10515000CDE902A70B460121D9F83C0001F07CF80B
:10516000EBE70000009FFFFF2DE9FC411E46DDE953
:1051700009548046089F00F015F900281AD14046CE
:1051800000F006F9002815D12B463A463146404634
:10519000009400F0A5F900280CD1206801AA41195B
:1051A000404600F009F8002804D12068019908441D
:1051B00020600020BDE8FC812DE9FC410446006828
:1051C0003A4B1546884630B30020286021684A686B
:1051D000C2F30330022801D12669E6B103281CD0AE
:1051E00004281AD0052818D0062816D0092814D06B
:1051F0000A2812D0072810D0C2F307434C2B0CD03A
:105200004D2B0AD02A4E01281ED0022807D027484D
:105210008030BDE8FC811846FBE70020F9E7207AE2
:1052200004F11407012809D0204600F05FF8014678
:10523000606A814211D0E16851B32BE0E3681BB191
:1052400041B1A16B31B902E0606A18BBE1E7C2F37A
:10525000421081003846626A9847204600F046F8BE
:10526000CDE900780646206800F036F8876894F9A2
:10527000081004F128033246E06BB8470028C8D173
:10528000207A0028204607D000F030F82860C4E7D4
:105290000028BED03046BCE700F028F8236901465C
:1052A00002B02A464046BDE8F0411847009FFFFF84
:1052B000809DFFFF10B504000DD0E06B28B1206881
:1052C00000F00AF88169E06B88472046BDE810408D
:1052D000402105F0EDBA10BD40680349C0F3846079
:1052E00051F8200070470000780000200068002876
:1052F00002D0007900F01F0070470000064905E069
:105300000A78824201D14868704708314A68002A09
:10531000F6D10020704700007C2501082DE9F041FE
:1053200017460E4605460D4C14E000BFFFF7D4FFAC
:105330000078A8420DD1606800F012F8B04208D1A0
:1053400060688088C0F30330B84202D16068BDE86D
:10535000F081083460680028E8D1F8E77C2501086E
:10536000002803D08088C0F3032080017047002804
:1053700003D08088C0F3032080017047002802D04A
:105380008088C0F3033070474021FAF78EBF0000D9
:10539000016819B100214162084670470048704712
:1053A000009FFFFF70B505460068154B78B1102AC5
:1053B00002D91348803070BD4068040EE40701D064
:1053C000144606E0C0F34214A400944201D91846E2
:1053D00070BDC0F30330062808D02CB1224605F179
:1053E0002800FAF73BFFAC63002070BD95F9084038
:1053F00013460A462146E86BBDE8704001F010B83C
:10540000009FFFFF026822B19288C2F30332022A92
:1054100001D006487047042902D004488030704704
:105420000021C1600249016100207047009FFFFF19
:10543000C54400082DE9F041194F1D46164688461F
:105440000446012B00D0C5B92068B0B14168090EEF
:10545000890703D4FFF784FFB0420ED1666025723E
:10546000012D0DD021688888C0F30330032807D0B0
:10547000042805D0052803D03DB13846BDE8F081A9
:105480002068FFF729FFC36803E00846FFF724FF01
:10549000036941466268E06BBDE8F04118470000CF
:1054A000009FFFFF70B50C00054611D04021FAF7B0
:1054B000FCFE2046FFF710FF406930B12046FFF7A1
:1054C0000BFF40698047E86320B100202C6070BD6D
:1054D000024870BD0148803870BD0000009FFFFF8A
:1054E0002DE9FE4F04460C9F0068DFF864819A4660
:1054F0001646894678B3002038602046FFF7F6FE4E
:1055000005000CD020688088C0F30330012809D042
:10551000062817D0D14526D1616AE1B91CE04D4873
:10552000BDE8FE8FAE4201D04B48F9E73E602068EF
:10553000FFF7D2FE456894F9081053464A46E06BDF
:10554000A847EDE7CDE90067534632464946E06B90
:1055500000F0D2FFE4E704E0B6FBF5F105FB1161D2
:1055600009B14046DCE7022802D039488030D7E74D
:1055700094F9081004F1140B11B1012907D015E0BA
:10558000E06820B1606A281AB04204D20EE0606A76
:10559000281AB0420AD9616A324601EB0B0049462B
:1055A000FAF75CFE606A304460624EE004F1280164
:1055B000606A0291F0B1A5EB0008584442464946A2
:1055C000FAF74CFECDE900BA2068FFF785FED0F867
:1055D00008C094F90810E06B2A46029BE0470028B7
:1055E0009ED13868AA44284438600020C144A6EB04
:1055F000080660624EB3B6FBF5F005FB10605FEA8B
:10560000000804D1207A10B9E06800B1A846A6EBE2
:10561000080505EB090142465846FAF71FFE616A84
:1056200001EB0800606285B1CDE9009A2068FFF7C0
:1056300053FE866894F90810E06B2A46029BB04737
:10564000002887D1386828443860002068E70000C7
:10565000009FFFFF809CFFFF809DFFFF04490968BA
:1056600048404108494240420143C80F4042704708
:105670008000002010B500F025F841084942404262
:105680000143C80F404210BD10B500F021F8410899
:10569000494240420143C80F404210BD10B500F0DE
:1056A0001DF84108494240420143C80F404210BD25
:1056B00010B500F019F84108494240420143C80FB3
:1056C000404210BD014909684840704780000020F1
:1056D0000149096848407047800000200149096875
:1056E00048407047800000200149096848407047E1
:1056F000800000202DE9FF4F8DB00646DDE91B57E5
:105700009B46006803F001F80A2813D04021B068D6
:10571000884600EB0809306802F0ECFF824609A8D1
:1057200003F0B4F8002209A8316803F0B5F80400CA
:105730005DD101E08021EAE7DDE90E12304603F099
:10574000F7F8040053D12A465946304603F0F0F8E2
:1057500004004CD1212251461D98FAF79FFD21E00B
:10576000314609A802F070FF040040D101A909A840
:1057700002F088FF04003AD128461A9900F06CF92B
:10578000002301AACDF800A01D9900F06AF8BD42DF
:1057900007D20BEB05010122304603F0C9F80400E3
:1057A00025D16D1CBD42DBD901A9304602F06AFF4C
:1057B00004001CD1304603F0A7F8040017D142467C
:1057C0004946304603F0B4F8040010D15246304642
:1057D0001D9903F0ADF8040009D130461D9902F07F
:1057E00051FF040003D1304602F0C4FF044609A86B
:1057F00002F05CFF11B02046BDE8F08F70B5154691
:105800000E460446FFF75EFF344025EA000344EAF3
:10581000030070BD70B515460E460446FFF758FFED
:10582000344025EA000344EA030070BD70B5154614
:105830000E460446FFF752FF344025EA000344EACF
:10584000030070BD70B50024234604E0055D0E5DC5
:1058500075402B43641C9442F8D398B240EA13403D
:1058600070BD2DE9F0411C4690460E460546069F48
:10587000FFF72EFFC14304B93446002007E018F8B3
:105880000020235C2A400B401A433254401CB8428B
:10589000F5D3BDE8F0812DE9F84F1546DDE90A7929
:1058A000884682461C4613E02046FFF711FF064655
:1058B0002846FFF70DFF7040FFF7E6FEC04308EBF8
:1058C000040200235146CDF80090FFF7CAFF641C84
:1058D000BC42E9D9BDE8F88F2DE9F04792460F4662
:1058E000064600242DE000BFA7EB0A052046FFF77F
:1058F000EFFE80462846FFF7EBFE054688EA0500E6
:10590000C00FFFF7C1FEA8EB05022946FFF782FF93
:10591000C00FFFF7B9FE81460025A7F1010807E097
:10592000715D701942784846FFF774FF70556D1C21
:105930004545F5D3F21912F8011D09EA010010706E
:10594000641CBC42D0D3BDE8F0870000074B1B6845
:10595000491C43400840521C22EA030318434FF0FD
:10596000FF3101FA80F000B2704700008000002093
:10597000FFF744BF2DE9FF4F064681B0A1F10B00B0
:105980009A460D464FF000080090834200D85046DA
:1059900081463078FFF782FE04467078022100F0DD
:1059A000B4F844EA000B0020FFF798FE04460227F3
:1059B00009E0F05D002100F04AF80443E04300F004
:1059C000010080447F1CAF42F3D36BEA04074146D9
:1059D000082000F069F80743A5EB0802494638465D
:1059E000D21E00F079F88346494600F05DF804467F
:1059F00004F4884149424A4238464FF48241FFF755
:105A000015FFC0F1000847EA040006F10B01009AF7
:105A100000F088F85A464946204600F05DF80746EF
:105A20007119A1EB0900A9EB070204464946FFF7EB
:105A300053FFBAF1000F04D021464A460398FAF703
:105A40000DFC0E98076005B04046BDE8F08F10B51C
:105A500000F05BF8C04310BD70B50C46FFF744FE84
:105A600005462046FFF740FE6840FFF721FEC04391
:105A700070BD70B50C46FFF737FE06462046FFF7AF
:105A800033FE054686EA0500C00FFFF711FE044607
:105A9000761BFFF729FE2C4026EA00000443E00FA6
:105AA000FFF706FEC04370BD70B505460846FFF718
:105AB00015FE04462846FFF711FE054684EA050058
:105AC000C00FFFF7EBFD621B2946FFF7AFFEBDE8F5
:105AD0007040C00FFFF7E2BDFFF7A8BE70B50C46DF
